{
  "contractName": "Timelock",
  "abi": [
    {
      "inputs": [
        {
          "internalType": "address payable",
          "name": "_owner",
          "type": "address"
        }
      ],
      "stateMutability": "nonpayable",
      "type": "constructor"
    },
    {
      "inputs": [],
      "name": "duration",
      "outputs": [
        {
          "internalType": "uint256",
          "name": "",
          "type": "uint256"
        }
      ],
      "stateMutability": "view",
      "type": "function",
      "constant": true
    },
    {
      "inputs": [],
      "name": "end",
      "outputs": [
        {
          "internalType": "uint256",
          "name": "",
          "type": "uint256"
        }
      ],
      "stateMutability": "view",
      "type": "function",
      "constant": true
    },
    {
      "inputs": [],
      "name": "owner",
      "outputs": [
        {
          "internalType": "address payable",
          "name": "",
          "type": "address"
        }
      ],
      "stateMutability": "view",
      "type": "function",
      "constant": true
    },
    {
      "stateMutability": "payable",
      "type": "receive",
      "payable": true
    },
    {
      "inputs": [
        {
          "internalType": "address",
          "name": "_token",
          "type": "address"
        },
        {
          "internalType": "uint256",
          "name": "_amount",
          "type": "uint256"
        }
      ],
      "name": "deposit",
      "outputs": [],
      "stateMutability": "nonpayable",
      "type": "function"
    },
    {
      "inputs": [
        {
          "internalType": "address",
          "name": "_token",
          "type": "address"
        },
        {
          "internalType": "uint256",
          "name": "_amount",
          "type": "uint256"
        }
      ],
      "name": "withdraw",
      "outputs": [],
      "stateMutability": "nonpayable",
      "type": "function"
    }
  ],
  "bytecode": "0x60c060405234801561001057600080fd5b5060405161098438038061098483398181016040528101906100329190610099565b6103844261004091906100c2565b608081815250508073ffffffffffffffffffffffffffffffffffffffff1660a08173ffffffffffffffffffffffffffffffffffffffff1660601b815250505061019a565b60008151905061009381610183565b92915050565b6000602082840312156100ab57600080fd5b60006100b984828501610084565b91505092915050565b60006100cd8261014a565b91506100d88361014a565b9250827fffffffffffffffffffffffffffffffffffffffffffffffffffffffffffffffff0382111561010d5761010c610154565b5b828201905092915050565b60006101238261012a565b9050919050565b600073ffffffffffffffffffffffffffffffffffffffff82169050919050565b6000819050919050565b7f4e487b7100000000000000000000000000000000000000000000000000000000600052601160045260246000fd5b61018c81610118565b811461019757600080fd5b50565b60805160a05160601c6107a66101de600039600081816101c9015281816102110152818161033701526103bf0152600081816101ed015261029f01526107a66000f3fe60806040526004361061004e5760003560e01c80630fb5a6b41461005a57806347e7ef24146100855780638da5cb5b146100ae578063efbe1c1c146100d9578063f3fef3a31461010457610055565b3661005557005b600080fd5b34801561006657600080fd5b5061006f61012d565b60405161007c919061066f565b60405180910390f35b34801561009157600080fd5b506100ac60048036038101906100a79190610493565b610133565b005b3480156100ba57600080fd5b506100c36101c7565b6040516100d091906105b4565b60405180910390f35b3480156100e557600080fd5b506100ee6101eb565b6040516100fb919061066f565b60405180910390f35b34801561011057600080fd5b5061012b60048036038101906101269190610493565b61020f565b005b61038481565b8173ffffffffffffffffffffffffffffffffffffffff166323b872dd3330846040518463ffffffff1660e01b8152600401610170939291906105f8565b602060405180830381600087803b15801561018a57600080fd5b505af115801561019e573d6000803e3d6000fd5b505050506040513d601f19601f820116820180604052508101906101c291906104cf565b505050565b7f000000000000000000000000000000000000000000000000000000000000000081565b7f000000000000000000000000000000000000000000000000000000000000000081565b7f000000000000000000000000000000000000000000000000000000000000000073ffffffffffffffffffffffffffffffffffffffff163373ffffffffffffffffffffffffffffffffffffffff161461029d576040517f08c379a00000000000000000000000000000000000000000000000000000000081526004016102949061062f565b60405180910390fd5b7f0000000000000000000000000000000000000000000000000000000000000000421015610300576040517f08c379a00000000000000000000000000000000000000000000000000000000081526004016102f79061064f565b60405180910390fd5b600073ffffffffffffffffffffffffffffffffffffffff168273ffffffffffffffffffffffffffffffffffffffff1614156103a1577f000000000000000000000000000000000000000000000000000000000000000073ffffffffffffffffffffffffffffffffffffffff166108fc829081150290604051600060405180830381858888f1935050505015801561039b573d6000803e3d6000fd5b50610450565b8173ffffffffffffffffffffffffffffffffffffffff1663a9059cbb7f0000000000000000000000000000000000000000000000000000000000000000836040518363ffffffff1660e01b81526004016103fc9291906105cf565b602060405180830381600087803b15801561041657600080fd5b505af115801561042a573d6000803e3d6000fd5b505050506040513d601f19601f8201168201806040525081019061044e91906104cf565b505b5050565b6000813590506104638161072b565b92915050565b60008151905061047881610742565b92915050565b60008135905061048d81610759565b92915050565b600080604083850312156104a657600080fd5b60006104b485828601610454565b92505060206104c58582860161047e565b9150509250929050565b6000602082840312156104e157600080fd5b60006104ef84828501610469565b91505092915050565b610501816106f5565b82525050565b610510816106ad565b82525050565b61051f8161069b565b82525050565b6000610532600a8361068a565b91507f6f6e6c79206f776e6572000000000000000000000000000000000000000000006000830152602082019050919050565b600061057260098361068a565b91507f746f6f206561726c7900000000000000000000000000000000000000000000006000830152602082019050919050565b6105ae816106eb565b82525050565b60006020820190506105c96000830184610507565b92915050565b60006040820190506105e460008301856104f8565b6105f160208301846105a5565b9392505050565b600060608201905061060d6000830186610516565b61061a6020830185610516565b61062760408301846105a5565b949350505050565b6000602082019050818103600083015261064881610525565b9050919050565b6000602082019050818103600083015261066881610565565b9050919050565b600060208201905061068460008301846105a5565b92915050565b600082825260208201905092915050565b60006106a6826106cb565b9050919050565b60006106b8826106cb565b9050919050565b60008115159050919050565b600073ffffffffffffffffffffffffffffffffffffffff82169050919050565b6000819050919050565b600061070082610707565b9050919050565b600061071282610719565b9050919050565b6000610724826106cb565b9050919050565b6107348161069b565b811461073f57600080fd5b50565b61074b816106bf565b811461075657600080fd5b50565b610762816106eb565b811461076d57600080fd5b5056fea2646970667358221220c1109138a8654ba5ddb70d94a7256be05f2f23115cf32dd736a9a1d9aa6b576a64736f6c63430008000033",
  "immutableReferences": {
    "783": [
      {
        "length": 32,
        "start": 493
      },
      {
        "length": 32,
        "start": 671
      }
    ],
    "785": [
      {
        "length": 32,
        "start": 457
      },
      {
        "length": 32,
        "start": 529
      },
      {
        "length": 32,
        "start": 823
      },
      {
        "length": 32,
        "start": 959
      }
    ]
  },
  "source": "// SPDX-License-Identifier: MIT\npragma solidity >=0.4.22 <0.9.0;\n\nimport \"@openzeppelin/contracts/token/ERC20/IERC20.sol\";\nimport \"@openzeppelin/contracts/access/Ownable.sol\";\n\ncontract Timelock {\n    uint256 public constant duration = 15 minutes;\n    uint256 public immutable end;\n    address payable public immutable owner;\n\n    constructor(address payable _owner) {\n        end = block.timestamp + duration;\n        owner = _owner;\n    }\n\n    function deposit(address _token, uint256 _amount) external {\n        IERC20(_token).transferFrom(msg.sender, address(this), _amount);\n    }\n\n    //receive some ether\n    receive() external payable {}\n\n    function withdraw(address _token, uint256 _amount) external {\n        require(msg.sender == owner, \"only owner\");\n        require(block.timestamp >= end, \"too early\");\n        //convention meaning _token == address(0) we want to retrieve ether\n        if (_token == address(0)) {\n            owner.transfer(_amount);\n        } else {\n            IERC20(_token).transfer(owner, _amount);\n        }\n    }\n}\n",
  "sourcePath": "/Volumes/APPLE HDD/reactprojects/timelock/contracts/Timelock.sol",
  "compiler": {
    "name": "solc",
    "version": "0.8.0+commit.c7dfd78e.Emscripten.clang"
  },
  "schemaVersion": "3.4.3",
  "updatedAt": "2021-11-07T08:19:39.401Z",
  "networkType": "ethereum",
  "devdoc": {
    "kind": "dev",
    "methods": {},
    "version": 1
  },
  "userdoc": {
    "kind": "user",
    "methods": {},
    "version": 1
  }
}