{
  "contractName": "Timelock",
  "abi": [
    {
      "inputs": [
        {
          "internalType": "address payable",
          "name": "_owner",
          "type": "address"
        }
      ],
      "stateMutability": "nonpayable",
      "type": "constructor"
    },
    {
      "inputs": [],
      "name": "duration",
      "outputs": [
        {
          "internalType": "uint256",
          "name": "",
          "type": "uint256"
        }
      ],
      "stateMutability": "view",
      "type": "function",
      "constant": true
    },
    {
      "inputs": [],
      "name": "end",
      "outputs": [
        {
          "internalType": "uint256",
          "name": "",
          "type": "uint256"
        }
      ],
      "stateMutability": "view",
      "type": "function",
      "constant": true
    },
    {
      "inputs": [],
      "name": "owner",
      "outputs": [
        {
          "internalType": "address payable",
          "name": "",
          "type": "address"
        }
      ],
      "stateMutability": "view",
      "type": "function",
      "constant": true
    },
    {
      "stateMutability": "payable",
      "type": "receive",
      "payable": true
    },
    {
      "inputs": [
        {
          "internalType": "address",
          "name": "_token",
          "type": "address"
        },
        {
          "internalType": "uint256",
          "name": "_amount",
          "type": "uint256"
        }
      ],
      "name": "deposit",
      "outputs": [],
      "stateMutability": "nonpayable",
      "type": "function"
    },
    {
      "inputs": [],
      "name": "getTimeLeft",
      "outputs": [
        {
          "internalType": "uint256",
          "name": "",
          "type": "uint256"
        }
      ],
      "stateMutability": "view",
      "type": "function",
      "constant": true
    },
    {
      "inputs": [
        {
          "internalType": "address",
          "name": "_token",
          "type": "address"
        },
        {
          "internalType": "uint256",
          "name": "_amount",
          "type": "uint256"
        }
      ],
      "name": "withdraw",
      "outputs": [],
      "stateMutability": "nonpayable",
      "type": "function"
    }
  ],
  "bytecode": "0x60c060405234801561001057600080fd5b50604051610a55380380610a5583398181016040528101906100329190610098565b60f04261003f91906100c1565b608081815250508073ffffffffffffffffffffffffffffffffffffffff1660a08173ffffffffffffffffffffffffffffffffffffffff1660601b8152505050610199565b60008151905061009281610182565b92915050565b6000602082840312156100aa57600080fd5b60006100b884828501610083565b91505092915050565b60006100cc82610149565b91506100d783610149565b9250827fffffffffffffffffffffffffffffffffffffffffffffffffffffffffffffffff0382111561010c5761010b610153565b5b828201905092915050565b600061012282610129565b9050919050565b600073ffffffffffffffffffffffffffffffffffffffff82169050919050565b6000819050919050565b7f4e487b7100000000000000000000000000000000000000000000000000000000600052601160045260246000fd5b61018b81610117565b811461019657600080fd5b50565b60805160a05160601c6108716101e4600039600081816101fe015281816102790152818161039f015261042701526000818161022501528181610255015261030701526108716000f3fe6080604052600436106100595760003560e01c80630fb5a6b41461006557806347e7ef24146100905780638da5cb5b146100b9578063c7e284b8146100e4578063efbe1c1c1461010f578063f3fef3a31461013a57610060565b3661006057005b600080fd5b34801561007157600080fd5b5061007a610163565b60405161008791906106d7565b60405180910390f35b34801561009c57600080fd5b506100b760048036038101906100b291906104fb565b610168565b005b3480156100c557600080fd5b506100ce6101fc565b6040516100db919061061c565b60405180910390f35b3480156100f057600080fd5b506100f9610220565b60405161010691906106d7565b60405180910390f35b34801561011b57600080fd5b50610124610253565b60405161013191906106d7565b60405180910390f35b34801561014657600080fd5b50610161600480360381019061015c91906104fb565b610277565b005b60f081565b8173ffffffffffffffffffffffffffffffffffffffff166323b872dd3330846040518463ffffffff1660e01b81526004016101a593929190610660565b602060405180830381600087803b1580156101bf57600080fd5b505af11580156101d3573d6000803e3d6000fd5b505050506040513d601f19601f820116820180604052508101906101f79190610537565b505050565b7f000000000000000000000000000000000000000000000000000000000000000081565b6000427f000000000000000000000000000000000000000000000000000000000000000061024e9190610703565b905090565b7f000000000000000000000000000000000000000000000000000000000000000081565b7f000000000000000000000000000000000000000000000000000000000000000073ffffffffffffffffffffffffffffffffffffffff163373ffffffffffffffffffffffffffffffffffffffff1614610305576040517f08c379a00000000000000000000000000000000000000000000000000000000081526004016102fc90610697565b60405180910390fd5b7f0000000000000000000000000000000000000000000000000000000000000000421015610368576040517f08c379a000000000000000000000000000000000000000000000000000000000815260040161035f906106b7565b60405180910390fd5b600073ffffffffffffffffffffffffffffffffffffffff168273ffffffffffffffffffffffffffffffffffffffff161415610409577f000000000000000000000000000000000000000000000000000000000000000073ffffffffffffffffffffffffffffffffffffffff166108fc829081150290604051600060405180830381858888f19350505050158015610403573d6000803e3d6000fd5b506104b8565b8173ffffffffffffffffffffffffffffffffffffffff1663a9059cbb7f0000000000000000000000000000000000000000000000000000000000000000836040518363ffffffff1660e01b8152600401610464929190610637565b602060405180830381600087803b15801561047e57600080fd5b505af1158015610492573d6000803e3d6000fd5b505050506040513d601f19601f820116820180604052508101906104b69190610537565b505b5050565b6000813590506104cb816107f6565b92915050565b6000815190506104e08161080d565b92915050565b6000813590506104f581610824565b92915050565b6000806040838503121561050e57600080fd5b600061051c858286016104bc565b925050602061052d858286016104e6565b9150509250929050565b60006020828403121561054957600080fd5b6000610557848285016104d1565b91505092915050565b61056981610791565b82525050565b61057881610749565b82525050565b61058781610737565b82525050565b600061059a600a836106f2565b91507f6f6e6c79206f776e6572000000000000000000000000000000000000000000006000830152602082019050919050565b60006105da6009836106f2565b91507f746f6f206561726c7900000000000000000000000000000000000000000000006000830152602082019050919050565b61061681610787565b82525050565b6000602082019050610631600083018461056f565b92915050565b600060408201905061064c6000830185610560565b610659602083018461060d565b9392505050565b6000606082019050610675600083018661057e565b610682602083018561057e565b61068f604083018461060d565b949350505050565b600060208201905081810360008301526106b08161058d565b9050919050565b600060208201905081810360008301526106d0816105cd565b9050919050565b60006020820190506106ec600083018461060d565b92915050565b600082825260208201905092915050565b600061070e82610787565b915061071983610787565b92508282101561072c5761072b6107c7565b5b828203905092915050565b600061074282610767565b9050919050565b600061075482610767565b9050919050565b60008115159050919050565b600073ffffffffffffffffffffffffffffffffffffffff82169050919050565b6000819050919050565b600061079c826107a3565b9050919050565b60006107ae826107b5565b9050919050565b60006107c082610767565b9050919050565b7f4e487b7100000000000000000000000000000000000000000000000000000000600052601160045260246000fd5b6107ff81610737565b811461080a57600080fd5b50565b6108168161075b565b811461082157600080fd5b50565b61082d81610787565b811461083857600080fd5b5056fea2646970667358221220cb09fada0528b0d3fc15643535858128c79fbfa85d5a8c371d619fd44f633ffc64736f6c63430008000033",
  "immutableReferences": {
    "212": [
      {
        "length": 32,
        "start": 549
      },
      {
        "length": 32,
        "start": 597
      },
      {
        "length": 32,
        "start": 775
      }
    ],
    "214": [
      {
        "length": 32,
        "start": 510
      },
      {
        "length": 32,
        "start": 633
      },
      {
        "length": 32,
        "start": 927
      },
      {
        "length": 32,
        "start": 1063
      }
    ]
  },
  "source": "// SPDX-License-Identifier: MIT\npragma solidity >=0.4.22 <0.9.0;\n\nimport \"@openzeppelin/contracts/token/ERC20/IERC20.sol\";\nimport \"@openzeppelin/contracts/access/Ownable.sol\";\n\ncontract Timelock {\n    uint256 public constant duration = 4 minutes;\n    uint256 public immutable end;\n    address payable public immutable owner;\n\n    constructor(address payable _owner) {\n        end = block.timestamp + duration;\n        owner = _owner;\n    }\n\n    function deposit(address _token, uint256 _amount) external {\n        IERC20(_token).transferFrom(msg.sender, address(this), _amount);\n    }\n\n    function getTimeLeft() external view returns (uint256) {\n        return end - block.timestamp;\n    }\n\n    //receive some ether\n    receive() external payable {}\n\n    function withdraw(address _token, uint256 _amount) external {\n        require(msg.sender == owner, \"only owner\");\n        require(block.timestamp >= end, \"too early\");\n        //convention meaning _token == address(0) we want to retrieve ether\n        if (_token == address(0)) {\n            owner.transfer(_amount);\n        } else {\n            IERC20(_token).transfer(owner, _amount);\n        }\n    }\n}\n",
  "sourcePath": "/Volumes/APPLE HDD/reactprojects/timelock/contracts/Timelock.sol",
  "compiler": {
    "name": "solc",
    "version": "0.8.0+commit.c7dfd78e.Emscripten.clang"
  },
  "schemaVersion": "3.4.3",
  "updatedAt": "2021-11-07T08:59:21.985Z",
  "networkType": "ethereum",
  "devdoc": {
    "kind": "dev",
    "methods": {},
    "version": 1
  },
  "userdoc": {
    "kind": "user",
    "methods": {},
    "version": 1
  }
}